{
  "_format": "hh-sol-artifact-1",
  "contractName": "TodoApp",
  "sourceName": "contracts/TodoApp.sol",
  "abi": [
    {
      "inputs": [],
      "stateMutability": "nonpayable",
      "type": "constructor"
    },
    {
      "inputs": [
        {
          "internalType": "string",
          "name": "_task",
          "type": "string"
        }
      ],
      "name": "addTask",
      "outputs": [],
      "stateMutability": "nonpayable",
      "type": "function"
    },
    {
      "inputs": [
        {
          "internalType": "uint256",
          "name": "index",
          "type": "uint256"
        }
      ],
      "name": "deleteTask",
      "outputs": [],
      "stateMutability": "nonpayable",
      "type": "function"
    },
    {
      "inputs": [],
      "name": "getOwner",
      "outputs": [
        {
          "internalType": "address",
          "name": "",
          "type": "address"
        }
      ],
      "stateMutability": "view",
      "type": "function"
    },
    {
      "inputs": [],
      "name": "getTaskCount",
      "outputs": [
        {
          "internalType": "uint256",
          "name": "",
          "type": "uint256"
        }
      ],
      "stateMutability": "view",
      "type": "function"
    },
    {
      "inputs": [
        {
          "internalType": "uint256",
          "name": "index",
          "type": "uint256"
        },
        {
          "internalType": "bool",
          "name": "_status",
          "type": "bool"
        }
      ],
      "name": "updateStatus",
      "outputs": [],
      "stateMutability": "nonpayable",
      "type": "function"
    },
    {
      "inputs": [
        {
          "internalType": "uint256",
          "name": "index",
          "type": "uint256"
        }
      ],
      "name": "viewTask",
      "outputs": [
        {
          "components": [
            {
              "internalType": "string",
              "name": "task",
              "type": "string"
            },
            {
              "internalType": "bool",
              "name": "isdone",
              "type": "bool"
            }
          ],
          "internalType": "struct TodoApp.Task",
          "name": "",
          "type": "tuple"
        }
      ],
      "stateMutability": "view",
      "type": "function"
    }
  ],
  "bytecode": "0x608060405234801561001057600080fd5b50336000806101000a81548173ffffffffffffffffffffffffffffffffffffffff021916908373ffffffffffffffffffffffffffffffffffffffff160217905550610bcd806100606000396000f3fe608060405234801561001057600080fd5b50600436106100625760003560e01c8063387008c2146100675780633b3d7e5614610083578063560f3192146100b357806367238562146100cf578063893d20e8146100eb578063c17a340e14610109575b600080fd5b610081600480360381019061007c91906105b8565b610127565b005b61009d600480360381019061009891906105f8565b6101a5565b6040516100aa9190610701565b60405180910390f35b6100cd60048036038101906100c891906105f8565b6102cb565b005b6100e960048036038101906100e49190610788565b610354565b005b6100f3610454565b6040516101009190610816565b60405180910390f35b61011161047d565b60405161011e9190610840565b60405180910390f35b80600160003373ffffffffffffffffffffffffffffffffffffffff1673ffffffffffffffffffffffffffffffffffffffff16815260200190815260200160002083815481106101795761017861085b565b5b906000526020600020906002020160010160006101000a81548160ff0219169083151502179055505050565b6101ad6104c7565b600160003373ffffffffffffffffffffffffffffffffffffffff1673ffffffffffffffffffffffffffffffffffffffff16815260200190815260200160002082815481106101fe576101fd61085b565b5b9060005260206000209060020201604051806040016040529081600082018054610227906108b9565b80601f0160208091040260200160405190810160405280929190818152602001828054610253906108b9565b80156102a05780601f10610275576101008083540402835291602001916102a0565b820191906000526020600020905b81548152906001019060200180831161028357829003601f168201915b505050505081526020016001820160009054906101000a900460ff1615151515815250509050919050565b600160003373ffffffffffffffffffffffffffffffffffffffff1673ffffffffffffffffffffffffffffffffffffffff168152602001908152602001600020818154811061031c5761031b61085b565b5b90600052602060002090600202016000808201600061033b91906104e3565b6001820160006101000a81549060ff0219169055505050565b600160003373ffffffffffffffffffffffffffffffffffffffff1673ffffffffffffffffffffffffffffffffffffffff168152602001908152602001600020604051806040016040528084848080601f016020809104026020016040519081016040528093929190818152602001838380828437600081840152601f19601f820116905080830192505050505050508152602001600015158152509080600181540180825580915050600190039060005260206000209060020201600090919091909150600082015181600001908161042d9190610ac5565b5060208201518160010160006101000a81548160ff02191690831515021790555050505050565b60008060009054906101000a900473ffffffffffffffffffffffffffffffffffffffff16905090565b6000600160003373ffffffffffffffffffffffffffffffffffffffff1673ffffffffffffffffffffffffffffffffffffffff16815260200190815260200160002080549050905090565b6040518060400160405280606081526020016000151581525090565b5080546104ef906108b9565b6000825580601f106105015750610520565b601f01602090049060005260206000209081019061051f9190610523565b5b50565b5b8082111561053c576000816000905550600101610524565b5090565b600080fd5b600080fd5b6000819050919050565b61055d8161054a565b811461056857600080fd5b50565b60008135905061057a81610554565b92915050565b60008115159050919050565b61059581610580565b81146105a057600080fd5b50565b6000813590506105b28161058c565b92915050565b600080604083850312156105cf576105ce610540565b5b60006105dd8582860161056b565b92505060206105ee858286016105a3565b9150509250929050565b60006020828403121561060e5761060d610540565b5b600061061c8482850161056b565b91505092915050565b600081519050919050565b600082825260208201905092915050565b60005b8381101561065f578082015181840152602081019050610644565b60008484015250505050565b6000601f19601f8301169050919050565b600061068782610625565b6106918185610630565b93506106a1818560208601610641565b6106aa8161066b565b840191505092915050565b6106be81610580565b82525050565b600060408301600083015184820360008601526106e1828261067c565b91505060208301516106f660208601826106b5565b508091505092915050565b6000602082019050818103600083015261071b81846106c4565b905092915050565b600080fd5b600080fd5b600080fd5b60008083601f84011261074857610747610723565b5b8235905067ffffffffffffffff81111561076557610764610728565b5b6020830191508360018202830111156107815761078061072d565b5b9250929050565b6000806020838503121561079f5761079e610540565b5b600083013567ffffffffffffffff8111156107bd576107bc610545565b5b6107c985828601610732565b92509250509250929050565b600073ffffffffffffffffffffffffffffffffffffffff82169050919050565b6000610800826107d5565b9050919050565b610810816107f5565b82525050565b600060208201905061082b6000830184610807565b92915050565b61083a8161054a565b82525050565b60006020820190506108556000830184610831565b92915050565b7f4e487b7100000000000000000000000000000000000000000000000000000000600052603260045260246000fd5b7f4e487b7100000000000000000000000000000000000000000000000000000000600052602260045260246000fd5b600060028204905060018216806108d157607f821691505b6020821081036108e4576108e361088a565b5b50919050565b7f4e487b7100000000000000000000000000000000000000000000000000000000600052604160045260246000fd5b60008190508160005260206000209050919050565b60006020601f8301049050919050565b600082821b905092915050565b60006008830261097b7fffffffffffffffffffffffffffffffffffffffffffffffffffffffffffffffff8261093e565b610985868361093e565b95508019841693508086168417925050509392505050565b6000819050919050565b60006109c26109bd6109b88461054a565b61099d565b61054a565b9050919050565b6000819050919050565b6109dc836109a7565b6109f06109e8826109c9565b84845461094b565b825550505050565b600090565b610a056109f8565b610a108184846109d3565b505050565b5b81811015610a3457610a296000826109fd565b600181019050610a16565b5050565b601f821115610a7957610a4a81610919565b610a538461092e565b81016020851015610a62578190505b610a76610a6e8561092e565b830182610a15565b50505b505050565b600082821c905092915050565b6000610a9c60001984600802610a7e565b1980831691505092915050565b6000610ab58383610a8b565b9150826002028217905092915050565b610ace82610625565b67ffffffffffffffff811115610ae757610ae66108ea565b5b610af182546108b9565b610afc828285610a38565b600060209050601f831160018114610b2f5760008415610b1d578287015190505b610b278582610aa9565b865550610b8f565b601f198416610b3d86610919565b60005b82811015610b6557848901518255600182019150602085019450602081019050610b40565b86831015610b825784890151610b7e601f891682610a8b565b8355505b6001600288020188555050505b50505050505056fea2646970667358221220014a56345a4f8477fd306ffa94c6e5fd761eca0cdff7caf692621141ed84856d64736f6c63430008110033",
  "linkReferences": {},
  "deployedLinkReferences": {}
}